{
  "contractName": "CBC",
  "abi": [
    {
      "inputs": [],
      "stateMutability": "nonpayable",
      "type": "constructor"
    },
    {
      "anonymous": false,
      "inputs": [
        {
          "indexed": true,
          "internalType": "address",
          "name": "tokenOwner",
          "type": "address"
        },
        {
          "indexed": true,
          "internalType": "address",
          "name": "spender",
          "type": "address"
        },
        {
          "indexed": false,
          "internalType": "uint256",
          "name": "tokens",
          "type": "uint256"
        }
      ],
      "name": "Approval",
      "type": "event"
    },
    {
      "anonymous": false,
      "inputs": [
        {
          "indexed": true,
          "internalType": "address",
          "name": "from",
          "type": "address"
        },
        {
          "indexed": false,
          "internalType": "address",
          "name": "to",
          "type": "address"
        }
      ],
      "name": "MinterChanged",
      "type": "event"
    },
    {
      "anonymous": false,
      "inputs": [
        {
          "indexed": true,
          "internalType": "address",
          "name": "from",
          "type": "address"
        },
        {
          "indexed": true,
          "internalType": "address",
          "name": "to",
          "type": "address"
        },
        {
          "indexed": false,
          "internalType": "uint256",
          "name": "tokens",
          "type": "uint256"
        }
      ],
      "name": "Transfer",
      "type": "event"
    },
    {
      "inputs": [],
      "name": "decimals",
      "outputs": [
        {
          "internalType": "uint8",
          "name": "",
          "type": "uint8"
        }
      ],
      "stateMutability": "view",
      "type": "function",
      "constant": true
    },
    {
      "inputs": [],
      "name": "minter",
      "outputs": [
        {
          "internalType": "address",
          "name": "",
          "type": "address"
        }
      ],
      "stateMutability": "view",
      "type": "function",
      "constant": true
    },
    {
      "inputs": [],
      "name": "name",
      "outputs": [
        {
          "internalType": "string",
          "name": "",
          "type": "string"
        }
      ],
      "stateMutability": "view",
      "type": "function",
      "constant": true
    },
    {
      "inputs": [],
      "name": "symbol",
      "outputs": [
        {
          "internalType": "string",
          "name": "",
          "type": "string"
        }
      ],
      "stateMutability": "view",
      "type": "function",
      "constant": true
    },
    {
      "inputs": [
        {
          "internalType": "address",
          "name": "newMinter",
          "type": "address"
        }
      ],
      "name": "passMinterRole",
      "outputs": [
        {
          "internalType": "bool",
          "name": "",
          "type": "bool"
        }
      ],
      "stateMutability": "nonpayable",
      "type": "function"
    },
    {
      "inputs": [
        {
          "internalType": "uint256",
          "name": "amount",
          "type": "uint256"
        }
      ],
      "name": "mint",
      "outputs": [],
      "stateMutability": "nonpayable",
      "type": "function"
    },
    {
      "inputs": [
        {
          "internalType": "address",
          "name": "tokenOwner",
          "type": "address"
        }
      ],
      "name": "balanceOf",
      "outputs": [
        {
          "internalType": "uint256",
          "name": "",
          "type": "uint256"
        }
      ],
      "stateMutability": "view",
      "type": "function",
      "constant": true
    },
    {
      "inputs": [
        {
          "internalType": "address",
          "name": "receiver",
          "type": "address"
        },
        {
          "internalType": "uint256",
          "name": "numTokens",
          "type": "uint256"
        }
      ],
      "name": "transfer",
      "outputs": [
        {
          "internalType": "bool",
          "name": "",
          "type": "bool"
        }
      ],
      "stateMutability": "payable",
      "type": "function",
      "payable": true
    },
    {
      "inputs": [
        {
          "internalType": "address",
          "name": "delegate",
          "type": "address"
        },
        {
          "internalType": "uint256",
          "name": "numTokens",
          "type": "uint256"
        }
      ],
      "name": "approve",
      "outputs": [
        {
          "internalType": "bool",
          "name": "",
          "type": "bool"
        }
      ],
      "stateMutability": "nonpayable",
      "type": "function"
    },
    {
      "inputs": [
        {
          "internalType": "address",
          "name": "owner",
          "type": "address"
        },
        {
          "internalType": "address",
          "name": "delegate",
          "type": "address"
        }
      ],
      "name": "allowance",
      "outputs": [
        {
          "internalType": "uint256",
          "name": "",
          "type": "uint256"
        }
      ],
      "stateMutability": "view",
      "type": "function",
      "constant": true
    },
    {
      "inputs": [
        {
          "internalType": "address",
          "name": "owner",
          "type": "address"
        },
        {
          "internalType": "address",
          "name": "buyer",
          "type": "address"
        },
        {
          "internalType": "uint256",
          "name": "numTokens",
          "type": "uint256"
        }
      ],
      "name": "transferFrom",
      "outputs": [
        {
          "internalType": "bool",
          "name": "",
          "type": "bool"
        }
      ],
      "stateMutability": "payable",
      "type": "function",
      "payable": true
    }
  ],
  "bytecode": "0x608060405234801561001057600080fd5b5033600260006101000a81548173ffffffffffffffffffffffffffffffffffffffff021916908373ffffffffffffffffffffffffffffffffffffffff1602179055506114a8806100616000396000f3fe60806040526004361061009c5760003560e01c806370a082311161006457806370a082311461018f57806395d89b41146101cc578063a0712d68146101f7578063a9059cbb14610220578063d7fc5b1514610250578063dd62ed3e1461028d5761009c565b806306fdde03146100a157806307546172146100cc578063095ea7b3146100f757806323b872dd14610134578063313ce56714610164575b600080fd5b3480156100ad57600080fd5b506100b66102ca565b6040516100c391906111de565b60405180910390f35b3480156100d857600080fd5b506100e1610303565b6040516100ee91906111a8565b60405180910390f35b34801561010357600080fd5b5061011e60048036038101906101199190610f1c565b610329565b60405161012b91906111c3565b60405180910390f35b61014e60048036038101906101499190610ecd565b61041b565b60405161015b91906111c3565b60405180910390f35b34801561017057600080fd5b50610179610802565b60405161018691906112bb565b60405180910390f35b34801561019b57600080fd5b506101b660048036038101906101b19190610e68565b610807565b6040516101c391906112a0565b60405180910390f35b3480156101d857600080fd5b506101e161084f565b6040516101ee91906111de565b60405180910390f35b34801561020357600080fd5b5061021e60048036038101906102199190610f58565b610888565b005b61023a60048036038101906102359190610f1c565b6109b4565b60405161024791906111c3565b60405180910390f35b34801561025c57600080fd5b5061027760048036038101906102729190610e68565b610bcc565b60405161028491906111c3565b60405180910390f35b34801561029957600080fd5b506102b460048036038101906102af9190610e91565b610d18565b6040516102c191906112a0565b60405180910390f35b6040518060400160405280601581526020017f436861726c65732042616e6b2043757272656e6379000000000000000000000081525081565b600260009054906101000a900473ffffffffffffffffffffffffffffffffffffffff1681565b600081600160003373ffffffffffffffffffffffffffffffffffffffff1673ffffffffffffffffffffffffffffffffffffffff16815260200190815260200160002060008573ffffffffffffffffffffffffffffffffffffffff1673ffffffffffffffffffffffffffffffffffffffff168152602001908152602001600020819055508273ffffffffffffffffffffffffffffffffffffffff163373ffffffffffffffffffffffffffffffffffffffff167f8c5be1e5ebec7d5bd14f71427d1e84f3dd0314c0f7b2291e5b200ac8c7c3b9258460405161040991906112a0565b60405180910390a36001905092915050565b60008060008573ffffffffffffffffffffffffffffffffffffffff1673ffffffffffffffffffffffffffffffffffffffff1681526020019081526020016000205482111561049e576040517f08c379a000000000000000000000000000000000000000000000000000000000815260040161049590611200565b60405180910390fd5b600160008573ffffffffffffffffffffffffffffffffffffffff1673ffffffffffffffffffffffffffffffffffffffff16815260200190815260200160002060008473ffffffffffffffffffffffffffffffffffffffff1673ffffffffffffffffffffffffffffffffffffffff1681526020019081526020016000205482111561055d576040517f08c379a000000000000000000000000000000000000000000000000000000000815260040161055490611260565b60405180910390fd5b6105ae826000808773ffffffffffffffffffffffffffffffffffffffff1673ffffffffffffffffffffffffffffffffffffffff16815260200190815260200160002054610d9f90919063ffffffff16565b6000808673ffffffffffffffffffffffffffffffffffffffff1673ffffffffffffffffffffffffffffffffffffffff1681526020019081526020016000208190555061067f82600160008773ffffffffffffffffffffffffffffffffffffffff1673ffffffffffffffffffffffffffffffffffffffff16815260200190815260200160002060008673ffffffffffffffffffffffffffffffffffffffff1673ffffffffffffffffffffffffffffffffffffffff16815260200190815260200160002054610d9f90919063ffffffff16565b600160008673ffffffffffffffffffffffffffffffffffffffff1673ffffffffffffffffffffffffffffffffffffffff16815260200190815260200160002060008573ffffffffffffffffffffffffffffffffffffffff1673ffffffffffffffffffffffffffffffffffffffff16815260200190815260200160002081905550610750826000808673ffffffffffffffffffffffffffffffffffffffff1673ffffffffffffffffffffffffffffffffffffffff16815260200190815260200160002054610dec90919063ffffffff16565b6000808573ffffffffffffffffffffffffffffffffffffffff1673ffffffffffffffffffffffffffffffffffffffff168152602001908152602001600020819055508273ffffffffffffffffffffffffffffffffffffffff168473ffffffffffffffffffffffffffffffffffffffff167fddf252ad1be2c89b69c2b068fc378daa952ba7f163c4a11628f55a4df523b3ef846040516107ef91906112a0565b60405180910390a3600190509392505050565b601281565b60008060008373ffffffffffffffffffffffffffffffffffffffff1673ffffffffffffffffffffffffffffffffffffffff168152602001908152602001600020549050919050565b6040518060400160405280600381526020017f434243000000000000000000000000000000000000000000000000000000000081525081565b6000339050600260009054906101000a900473ffffffffffffffffffffffffffffffffffffffff1673ffffffffffffffffffffffffffffffffffffffff168173ffffffffffffffffffffffffffffffffffffffff161461091d576040517f08c379a000000000000000000000000000000000000000000000000000000000815260040161091490611240565b60405180910390fd5b61096e826000808473ffffffffffffffffffffffffffffffffffffffff1673ffffffffffffffffffffffffffffffffffffffff16815260200190815260200160002054610dec90919063ffffffff16565b6000808373ffffffffffffffffffffffffffffffffffffffff1673ffffffffffffffffffffffffffffffffffffffff168152602001908152602001600020819055505050565b60008060003373ffffffffffffffffffffffffffffffffffffffff1673ffffffffffffffffffffffffffffffffffffffff16815260200190815260200160002054821115610a37576040517f08c379a0000000000000000000000000000000000000000000000000000000008152600401610a2e90611220565b60405180910390fd5b610a88826000803373ffffffffffffffffffffffffffffffffffffffff1673ffffffffffffffffffffffffffffffffffffffff16815260200190815260200160002054610d9f90919063ffffffff16565b6000803373ffffffffffffffffffffffffffffffffffffffff1673ffffffffffffffffffffffffffffffffffffffff16815260200190815260200160002081905550610b1b826000808673ffffffffffffffffffffffffffffffffffffffff1673ffffffffffffffffffffffffffffffffffffffff16815260200190815260200160002054610dec90919063ffffffff16565b6000808573ffffffffffffffffffffffffffffffffffffffff1673ffffffffffffffffffffffffffffffffffffffff168152602001908152602001600020819055508273ffffffffffffffffffffffffffffffffffffffff163373ffffffffffffffffffffffffffffffffffffffff167fddf252ad1be2c89b69c2b068fc378daa952ba7f163c4a11628f55a4df523b3ef84604051610bba91906112a0565b60405180910390a36001905092915050565b6000600260009054906101000a900473ffffffffffffffffffffffffffffffffffffffff1673ffffffffffffffffffffffffffffffffffffffff163373ffffffffffffffffffffffffffffffffffffffff1614610c5e576040517f08c379a0000000000000000000000000000000000000000000000000000000008152600401610c5590611280565b60405180910390fd5b81600260006101000a81548173ffffffffffffffffffffffffffffffffffffffff021916908373ffffffffffffffffffffffffffffffffffffffff1602179055503373ffffffffffffffffffffffffffffffffffffffff167f3b0007eb941cf645526cbb3a4fdaecda9d28ce4843167d9263b536a1f1edc0f6600260009054906101000a900473ffffffffffffffffffffffffffffffffffffffff16604051610d0791906111a8565b60405180910390a260019050919050565b6000600160008473ffffffffffffffffffffffffffffffffffffffff1673ffffffffffffffffffffffffffffffffffffffff16815260200190815260200160002060008373ffffffffffffffffffffffffffffffffffffffff1673ffffffffffffffffffffffffffffffffffffffff16815260200190815260200160002054905092915050565b600082821115610dd8577f4e487b7100000000000000000000000000000000000000000000000000000000600052600160045260246000fd5b8183610de49190611348565b905092915050565b6000808284610dfb91906112f2565b905083811015610e34577f4e487b7100000000000000000000000000000000000000000000000000000000600052600160045260246000fd5b8091505092915050565b600081359050610e4d81611444565b92915050565b600081359050610e628161145b565b92915050565b600060208284031215610e7a57600080fd5b6000610e8884828501610e3e565b91505092915050565b60008060408385031215610ea457600080fd5b6000610eb285828601610e3e565b9250506020610ec385828601610e3e565b9150509250929050565b600080600060608486031215610ee257600080fd5b6000610ef086828701610e3e565b9350506020610f0186828701610e3e565b9250506040610f1286828701610e53565b9150509250925092565b60008060408385031215610f2f57600080fd5b6000610f3d85828601610e3e565b9250506020610f4e85828601610e53565b9150509250929050565b600060208284031215610f6a57600080fd5b6000610f7884828501610e53565b91505092915050565b610f8a8161137c565b82525050565b610f998161138e565b82525050565b6000610faa826112d6565b610fb481856112e1565b9350610fc48185602086016113d1565b610fcd81611433565b840191505092915050565b6000610fe5601b836112e1565b91507f4f776e65722062616c616e6365206973206e6f7420656e6f75676800000000006000830152602082019050919050565b60006110256012836112e1565b91507f4e6f7420456e6f7567682042616c616e636500000000000000000000000000006000830152602082019050919050565b6000611065602b836112e1565b91507f4572726f722c206d73672e73656e64657220646f6573206e6f7420686176652060008301527f6d696e74657220726f6c650000000000000000000000000000000000000000006020830152604082019050919050565b60006110cb6023836112e1565b91507f4f776e657220616c6c6f7765642062616c616e6365206973206e6f7420656e6f60008301527f75676800000000000000000000000000000000000000000000000000000000006020830152604082019050919050565b6000611131602d836112e1565b91507f4572726f722c206f6e6c79206f776e65722063616e206368616e67652070617360008301527f73206d696e74657220726f6c65000000000000000000000000000000000000006020830152604082019050919050565b611193816113ba565b82525050565b6111a2816113c4565b82525050565b60006020820190506111bd6000830184610f81565b92915050565b60006020820190506111d86000830184610f90565b92915050565b600060208201905081810360008301526111f88184610f9f565b905092915050565b6000602082019050818103600083015261121981610fd8565b9050919050565b6000602082019050818103600083015261123981611018565b9050919050565b6000602082019050818103600083015261125981611058565b9050919050565b60006020820190508181036000830152611279816110be565b9050919050565b6000602082019050818103600083015261129981611124565b9050919050565b60006020820190506112b5600083018461118a565b92915050565b60006020820190506112d06000830184611199565b92915050565b600081519050919050565b600082825260208201905092915050565b60006112fd826113ba565b9150611308836113ba565b9250827fffffffffffffffffffffffffffffffffffffffffffffffffffffffffffffffff0382111561133d5761133c611404565b5b828201905092915050565b6000611353826113ba565b915061135e836113ba565b92508282101561137157611370611404565b5b828203905092915050565b60006113878261139a565b9050919050565b60008115159050919050565b600073ffffffffffffffffffffffffffffffffffffffff82169050919050565b6000819050919050565b600060ff82169050919050565b60005b838110156113ef5780820151818401526020810190506113d4565b838111156113fe576000848401525b50505050565b7f4e487b7100000000000000000000000000000000000000000000000000000000600052601160045260246000fd5b6000601f19601f8301169050919050565b61144d8161137c565b811461145857600080fd5b50565b611464816113ba565b811461146f57600080fd5b5056fea2646970667358221220f52196d1a392f3459a3c99b0eea385273998ef76da2021f5f88dcdc6851414f664736f6c63430008000033",
  "immutableReferences": {},
  "source": "// SPDX-License-Identifier: MIT\npragma solidity 0.8.0;\n\ncontract CBC {\n\n    string public constant name = \"Charles Bank Currency\";\n    string public constant symbol = \"CBC\";\n    uint8 public constant decimals = 18;\n\n\n    event Approval(address indexed tokenOwner, address indexed spender, uint tokens);\n    event Transfer(address indexed from, address indexed to, uint tokens);\n    event MinterChanged(address indexed from, address to);\n\n\n\n    mapping(address => uint256) balances;\n\n    mapping(address => mapping (address => uint256)) allowed;\n\n    address public minter;\n\n    using SafeMath for uint256;\n\n\n    constructor() public {\n        minter = msg.sender;\n    }\n\n    function passMinterRole(address newMinter) public returns (bool) {\n        require(msg.sender == minter, 'Error, only owner can change pass minter role');\n        minter = newMinter;\n        emit MinterChanged(msg.sender, minter);\n        return true;\n    }\n\n    function mint(uint256 amount) public {\n        address receiver=msg.sender;\n        require(receiver == minter, 'Error, msg.sender does not have minter role');\n        balances[receiver] = balances[receiver].add(amount);\n    }\n\n    function balanceOf(address tokenOwner) public view returns (uint) {\n        return balances[tokenOwner];\n    }\n\n    function transfer(address receiver, uint numTokens) public payable returns (bool)  {\n        require(numTokens <= balances[msg.sender],\"Not Enough Balance\");\n        balances[msg.sender] = balances[msg.sender].sub(numTokens);\n        balances[receiver] = balances[receiver].add(numTokens);\n        emit Transfer(msg.sender, receiver, numTokens);\n        return true;\n    }\n\n    function approve(address delegate, uint numTokens) public returns (bool) {\n        allowed[msg.sender][delegate] = numTokens;\n        emit Approval(msg.sender, delegate, numTokens);\n        return true;\n    }\n\n    function allowance(address owner, address delegate) public view returns (uint) {\n        return allowed[owner][delegate];\n    }\n\n    function transferFrom(address owner, address buyer, uint numTokens) public payable returns (bool) {\n        require(numTokens <= balances[owner],\"Owner balance is not enough\");\n        require(numTokens <= allowed[owner][buyer],\"Owner allowed balance is not enough\");\n        balances[owner] = balances[owner].sub(numTokens);\n        allowed[owner][buyer] = allowed[owner][buyer].sub(numTokens);\n        balances[buyer] = balances[buyer].add(numTokens);\n        emit Transfer(owner, buyer, numTokens);\n        return true;\n    }\n}\n\nlibrary SafeMath {\n    function sub(uint256 a, uint256 b) internal pure returns (uint256) {\n        assert(b <= a);\n        return a - b;\n    }\n\n    function add(uint256 a, uint256 b) internal pure returns (uint256) {\n        uint256 c = a + b;\n        assert(c >= a);\n        return c;\n    }\n}",
  "sourcePath": "/Users/charles/Documents/suangua/src/contracts/CBC.sol",
  "compiler": {
    "name": "solc",
    "version": "0.8.0+commit.c7dfd78e.Emscripten.clang"
  },
  "schemaVersion": "3.4.1",
  "updatedAt": "2021-07-20T14:55:11.552Z",
  "networkType": "ethereum",
  "devdoc": {
    "kind": "dev",
    "methods": {},
    "version": 1
  },
  "userdoc": {
    "kind": "user",
    "methods": {},
    "version": 1
  }
}